{
  "contractName": "Gamble",
  "abi": [
    {
      "inputs": [
        {
          "name": "_costToEnter",
          "type": "uint256"
        },
        {
          "name": "_host",
          "type": "address"
        }
      ],
      "payable": true,
      "stateMutability": "payable",
      "type": "constructor"
    },
    {
      "constant": false,
      "inputs": [],
      "name": "joinGame",
      "outputs": [],
      "payable": true,
      "stateMutability": "payable",
      "type": "function"
    },
    {
      "constant": false,
      "inputs": [],
      "name": "startGame",
      "outputs": [],
      "payable": true,
      "stateMutability": "payable",
      "type": "function"
    },
    {
      "constant": true,
      "inputs": [],
      "name": "getCostToEnter",
      "outputs": [
        {
          "name": "",
          "type": "uint256"
        }
      ],
      "payable": false,
      "stateMutability": "view",
      "type": "function"
    }
  ],
  "bytecode": "0x608060405260405160408061051d8339810180604052604081101561002357600080fd5b81019080805190602001909291908051906020019092919050505061005681610075640100000000026401000000009004565b61006e8261013b640100000000026401000000009004565b5050610145565b806000806101000a81548173ffffffffffffffffffffffffffffffffffffffff021916908373ffffffffffffffffffffffffffffffffffffffff1602179055506000600160006101000a81548173ffffffffffffffffffffffffffffffffffffffff021916908373ffffffffffffffffffffffffffffffffffffffff16021790555033600260006101000a81548173ffffffffffffffffffffffffffffffffffffffff021916908373ffffffffffffffffffffffffffffffffffffffff16021790555050565b8060038190555050565b6103c9806101546000396000f3fe608060405260043610610057576000357c0100000000000000000000000000000000000000000000000000000000900463ffffffff168063d4f77b1c1461005c578063d65ab5f214610066578063f358b94314610070575b600080fd5b61006461009b565b005b61006e61014b565b005b34801561007c57600080fd5b50610085610393565b6040518082815260200191505060405180910390f35b600073ffffffffffffffffffffffffffffffffffffffff16600160009054906101000a900473ffffffffffffffffffffffffffffffffffffffff1673ffffffffffffffffffffffffffffffffffffffff161415156100f857600080fd5b6003543414151561010857600080fd5b33600160006101000a81548173ffffffffffffffffffffffffffffffffffffffff021916908373ffffffffffffffffffffffffffffffffffffffff160217905550565b6000809054906101000a900473ffffffffffffffffffffffffffffffffffffffff1673ffffffffffffffffffffffffffffffffffffffff163373ffffffffffffffffffffffffffffffffffffffff161415156101a657600080fd5b600073ffffffffffffffffffffffffffffffffffffffff16600160009054906101000a900473ffffffffffffffffffffffffffffffffffffffff1673ffffffffffffffffffffffffffffffffffffffff161415151561020457600080fd5b600060024233604051602001808381526020018273ffffffffffffffffffffffffffffffffffffffff1673ffffffffffffffffffffffffffffffffffffffff166c0100000000000000000000000002815260140192505050604051602081830303815290604052805190602001206001900481151561027f57fe5b069050600181141561030f576000809054906101000a900473ffffffffffffffffffffffffffffffffffffffff1673ffffffffffffffffffffffffffffffffffffffff166108fc3073ffffffffffffffffffffffffffffffffffffffff16319081150290604051600060405180830381858888f19350505050158015610309573d6000803e3d6000fd5b50610390565b600160009054906101000a900473ffffffffffffffffffffffffffffffffffffffff1673ffffffffffffffffffffffffffffffffffffffff166108fc3073ffffffffffffffffffffffffffffffffffffffff16319081150290604051600060405180830381858888f1935050505015801561038e573d6000803e3d6000fd5b505b50565b600060035490509056fea165627a7a72305820de7307e7fe29b3b630c6812f1e57e1d2d758a8907224eda7d81bba6e5ce043f40029",
  "source": "pragma solidity ^0.5.0;\ncontract Gamble {\n\tconstructor (uint _costToEnter, address payable _host) public payable {\n        setGameAddresses(_host);\n        setCostToEnter(_costToEnter);\n    }\n\taddress payable host;\n\taddress payable player;\n\taddress factory;\t\n\tuint costToEnter;\n\n\tmodifier onlyHost {\n\t\trequire (msg.sender == host);\n\t\t_;\n\t}\n\n\tfunction setGameAddresses (address payable _host) private {\n\t\thost = _host;\n\t\tplayer = 0x0000000000000000000000000000000000000000;\n\t\tfactory = msg.sender;\n\t}\n\n\tfunction setCostToEnter(uint _costToEnter) private {\n\t\tcostToEnter = _costToEnter;\n\t}\n\n\tfunction joinGame() public payable {\n\t\trequire (player == 0x0000000000000000000000000000000000000000);\n\t\trequire (msg.value == costToEnter);\n\t\tplayer = msg.sender;\n\t}\n\n\tfunction startGame() public payable onlyHost {\n\t\trequire (player != 0x0000000000000000000000000000000000000000);\n\n\t\t// randomness to determine winner - current implementation is insecure\n\t\tuint winner = uint(keccak256(abi.encodePacked(now, msg.sender))) % 2;\n\n\n\t\tif (winner == 1){\n\t\t\t// can't figure out why there's a bug here\n\t\t\taddress(host).transfer(address(this).balance);\n\t\t}\n\t\telse {\n\t\t    player.transfer(address(this).balance);\n\t\t}\n\n\t}\n\n\tfunction getCostToEnter() public view returns (uint) {\n\t\treturn costToEnter;\n\t}\n}\n",
  "sourcePath": "/Users/anurag/Projects/gamble-game/contracts/gamble-game.sol",
  "compiler": {
    "name": "solc",
    "version": "0.5.0+commit.1d4f565a.Emscripten.clang"
  },
  "schemaVersion": "3.0.0",
  "updatedAt": "2019-01-09T02:26:33.946Z",
  "devdoc": {
    "methods": {}
  },
  "userdoc": {
    "methods": {}
  }
}