{
  "contractName": "GambleFactory",
  "abi": [
    {
      "anonymous": false,
      "inputs": [
        {
          "indexed": false,
          "name": "_host",
          "type": "address"
        },
        {
          "indexed": false,
          "name": "_gambleName",
          "type": "string"
        }
      ],
      "name": "newGambleContractCreated",
      "type": "event",
      "signature": "0x91324db943eecaec46bd6f55dba52857b24723f33bb7d0dc2a074014824d12ca"
    },
    {
      "constant": false,
      "inputs": [
        {
          "name": "_gambleName",
          "type": "string"
        },
        {
          "name": "_costToEnter",
          "type": "uint256"
        }
      ],
      "name": "createGambleContract",
      "outputs": [],
      "payable": true,
      "stateMutability": "payable",
      "type": "function",
      "signature": "0xcd976cbb"
    }
  ],
  "bytecode": "0x608060405234801561001057600080fd5b50610895806100206000396000f3fe608060405260043610610041576000357c0100000000000000000000000000000000000000000000000000000000900463ffffffff168063cd976cbb14610046575b600080fd5b6101096004803603604081101561005c57600080fd5b810190808035906020019064010000000081111561007957600080fd5b82018360208201111561008b57600080fd5b803590602001918460018302840111640100000000831117156100ad57600080fd5b91908080601f016020809104026020016040519081016040528093929190818152602001838380828437600081840152601f19601f8201169050808301925050505050505091929192908035906020019092919050505061010b565b005b803414151561011957600080fd5b600081823361012661033c565b808381526020018273ffffffffffffffffffffffffffffffffffffffff1673ffffffffffffffffffffffffffffffffffffffff168152602001925050506040518091039082f08015801561017e573d6000803e3d6000fd5b509050905080600160003373ffffffffffffffffffffffffffffffffffffffff1673ffffffffffffffffffffffffffffffffffffffff16815260200190815260200160002060006101000a81548173ffffffffffffffffffffffffffffffffffffffff021916908373ffffffffffffffffffffffffffffffffffffffff16021790555060008190806001815401808255809150509060018203906000526020600020016000909192909190916101000a81548173ffffffffffffffffffffffffffffffffffffffff021916908373ffffffffffffffffffffffffffffffffffffffff160217905550507f91324db943eecaec46bd6f55dba52857b24723f33bb7d0dc2a074014824d12ca3384604051808373ffffffffffffffffffffffffffffffffffffffff1673ffffffffffffffffffffffffffffffffffffffff16815260200180602001828103825283818151815260200191508051906020019080838360005b838110156102fc5780820151818401526020810190506102e1565b50505050905090810190601f1680156103295780820380516001836020036101000a031916815260200191505b50935050505060405180910390a1505050565b60405161051d8061034d8339019056fe608060405260405160408061051d8339810180604052604081101561002357600080fd5b81019080805190602001909291908051906020019092919050505061005681610075640100000000026401000000009004565b61006e8261013b640100000000026401000000009004565b5050610145565b806000806101000a81548173ffffffffffffffffffffffffffffffffffffffff021916908373ffffffffffffffffffffffffffffffffffffffff1602179055506000600160006101000a81548173ffffffffffffffffffffffffffffffffffffffff021916908373ffffffffffffffffffffffffffffffffffffffff16021790555033600260006101000a81548173ffffffffffffffffffffffffffffffffffffffff021916908373ffffffffffffffffffffffffffffffffffffffff16021790555050565b8060038190555050565b6103c9806101546000396000f3fe608060405260043610610057576000357c0100000000000000000000000000000000000000000000000000000000900463ffffffff168063d4f77b1c1461005c578063d65ab5f214610066578063f358b94314610070575b600080fd5b61006461009b565b005b61006e61014b565b005b34801561007c57600080fd5b50610085610393565b6040518082815260200191505060405180910390f35b600073ffffffffffffffffffffffffffffffffffffffff16600160009054906101000a900473ffffffffffffffffffffffffffffffffffffffff1673ffffffffffffffffffffffffffffffffffffffff161415156100f857600080fd5b6003543414151561010857600080fd5b33600160006101000a81548173ffffffffffffffffffffffffffffffffffffffff021916908373ffffffffffffffffffffffffffffffffffffffff160217905550565b6000809054906101000a900473ffffffffffffffffffffffffffffffffffffffff1673ffffffffffffffffffffffffffffffffffffffff163373ffffffffffffffffffffffffffffffffffffffff161415156101a657600080fd5b600073ffffffffffffffffffffffffffffffffffffffff16600160009054906101000a900473ffffffffffffffffffffffffffffffffffffffff1673ffffffffffffffffffffffffffffffffffffffff161415151561020457600080fd5b600060024233604051602001808381526020018273ffffffffffffffffffffffffffffffffffffffff1673ffffffffffffffffffffffffffffffffffffffff166c0100000000000000000000000002815260140192505050604051602081830303815290604052805190602001206001900481151561027f57fe5b069050600181141561030f576000809054906101000a900473ffffffffffffffffffffffffffffffffffffffff1673ffffffffffffffffffffffffffffffffffffffff166108fc3073ffffffffffffffffffffffffffffffffffffffff16319081150290604051600060405180830381858888f19350505050158015610309573d6000803e3d6000fd5b50610390565b600160009054906101000a900473ffffffffffffffffffffffffffffffffffffffff1673ffffffffffffffffffffffffffffffffffffffff166108fc3073ffffffffffffffffffffffffffffffffffffffff16319081150290604051600060405180830381858888f1935050505015801561038e573d6000803e3d6000fd5b505b50565b600060035490509056fea165627a7a72305820de7307e7fe29b3b630c6812f1e57e1d2d758a8907224eda7d81bba6e5ce043f40029a165627a7a72305820536704614e426cb7781138b7804a4bf5b595476ecad5b4f4d2d6afba8bad2feb0029",
  "source": "pragma solidity ^0.5.0;\nimport \"./gamble-game.sol\";\n\ncontract GambleFactory{\n\n\tGamble[] gambleGames;\n\tmapping(address => address) gambles;\n\tmapping(address => Gamble[]) gambleGamesByHost;\n\tmapping(address => Gamble[]) gambleGamesByPlayer;\n\n\tevent newGambleContractCreated(\n\t\taddress _host, string _gambleName);\n\n\tfunction createGambleContract (string memory _gambleName, uint _costToEnter) public payable{\n\t\trequire (msg.value == _costToEnter);\n\t\tGamble newGamble = (new Gamble).value(_costToEnter)(_costToEnter, msg.sender);\n\t\tgambles[msg.sender] = address(newGamble);\n\t\tgambleGames.push(newGamble);\n\t\temit newGambleContractCreated(msg.sender, _gambleName);\n\t}\n}",
  "sourcePath": "/Users/anurag/Projects/gamble-game/contracts/gamble-factory.sol",
  "compiler": {
    "name": "solc",
    "version": "0.5.0+commit.1d4f565a.Emscripten.clang"
  },
  "schemaVersion": "3.0.0",
  "updatedAt": "2019-01-09T02:30:31.810Z",
  "devdoc": {
    "methods": {}
  },
  "userdoc": {
    "methods": {}
  }
}